:0300000002000EED
:0C000E00787FE4F6D8FD758108020055EB
:03000300010800F1
:1000B100E4F589D2AF758C63758A1875A882D28CE4
:0200C10080FEBF
:03000B0002009A56
:10009A00C0E0758C63758A180508E5086464700405
:0700AA00B280F508D0E0323E
:10001A000200B1E493A3F8E493A34003F68001F24B
:10002A0008DFF48029E493A3F85407240CC8C333E7
:10003A00C4540F4420C8834004F456800146F6DFB6
:10004A00E4800B0102040810204080900003E47E43
:10005A00019360BCA3FF543F30E509541FFEE493AB
:10006A00A360010ECF54C025E060A840B8E493A372
:10007A00FAE493A3F8E493A3C8C582C8CAC583CA9D
:10008A00F0A3C8C582C8CAC583CADFE9DEE780BE55
:0100060000F9
:00000001FF
